{
	"contracts/SafeSmartContract.sol": {
		"SafeSmartContract": {
			"abi": [
				{
					"inputs": [
						{
							"internalType": "uint256",
							"name": "_amount",
							"type": "uint256"
						},
						{
							"internalType": "uint256",
							"name": "_durationInDays",
							"type": "uint256"
						}
					],
					"name": "lockTokens",
					"outputs": [],
					"stateMutability": "nonpayable",
					"type": "function"
				},
				{
					"inputs": [
						{
							"internalType": "address",
							"name": "",
							"type": "address"
						}
					],
					"name": "lockers",
					"outputs": [
						{
							"internalType": "uint256",
							"name": "amount",
							"type": "uint256"
						},
						{
							"internalType": "uint256",
							"name": "unlockTime",
							"type": "uint256"
						},
						{
							"internalType": "uint256",
							"name": "reward",
							"type": "uint256"
						}
					],
					"stateMutability": "view",
					"type": "function"
				},
				{
					"inputs": [],
					"name": "test",
					"outputs": [],
					"stateMutability": "nonpayable",
					"type": "function"
				},
				{
					"inputs": [],
					"name": "unlockTokens",
					"outputs": [],
					"stateMutability": "nonpayable",
					"type": "function"
				}
			],
			"devdoc": {
				"kind": "dev",
				"methods": {},
				"version": 1
			},
			"evm": {
				"assembly": "    /* \"contracts/SafeSmartContract.sol\":61:2231  contract SafeSmartContract {\r... */\n  mstore(0x40, 0x80)\n  callvalue\n  dup1\n  iszero\n  tag_1\n  jumpi\n  0x00\n  dup1\n  revert\ntag_1:\n  pop\n  dataSize(sub_0)\n  dup1\n  dataOffset(sub_0)\n  0x00\n  codecopy\n  0x00\n  return\nstop\n\nsub_0: assembly {\n        /* \"contracts/SafeSmartContract.sol\":61:2231  contract SafeSmartContract {\r... */\n      mstore(0x40, 0x80)\n      callvalue\n      dup1\n      iszero\n      tag_1\n      jumpi\n      0x00\n      dup1\n      revert\n    tag_1:\n      pop\n      jumpi(tag_2, lt(calldatasize, 0x04))\n      shr(0xe0, calldataload(0x00))\n      dup1\n      0x2c8e7a21\n      eq\n      tag_3\n      jumpi\n      dup1\n      0x89158d8e\n      eq\n      tag_4\n      jumpi\n      dup1\n      0xf8a8fd6d\n      eq\n      tag_5\n      jumpi\n      dup1\n      0xf968f493\n      eq\n      tag_6\n      jumpi\n    tag_2:\n      0x00\n      dup1\n      revert\n        /* \"contracts/SafeSmartContract.sol\":481:522  mapping(address => Locker) public lockers */\n    tag_3:\n      tag_7\n      0x04\n      dup1\n      calldatasize\n      sub\n      dup2\n      add\n      swap1\n      tag_8\n      swap2\n      swap1\n      tag_9\n      jump\t// in\n    tag_8:\n      tag_10\n      jump\t// in\n    tag_7:\n      mload(0x40)\n      tag_11\n      swap4\n      swap3\n      swap2\n      swap1\n      tag_12\n      jump\t// in\n    tag_11:\n      mload(0x40)\n      dup1\n      swap2\n      sub\n      swap1\n      return\n        /* \"contracts/SafeSmartContract.sol\":558:1048  function lockTokens(uint256 _amount, uint256 _durationInDays) public {\r... */\n    tag_4:\n      tag_13\n      0x04\n      dup1\n      calldatasize\n      sub\n      dup2\n      add\n      swap1\n      tag_14\n      swap2\n      swap1\n      tag_15\n      jump\t// in\n    tag_14:\n      tag_16\n      jump\t// in\n    tag_13:\n      stop\n        /* \"contracts/SafeSmartContract.sol\":1621:2228  function test() public {\r... */\n    tag_5:\n      tag_17\n      tag_18\n      jump\t// in\n    tag_17:\n      stop\n        /* \"contracts/SafeSmartContract.sol\":1088:1364  function unlockTokens() public {\r... */\n    tag_6:\n      tag_19\n      tag_20\n      jump\t// in\n    tag_19:\n      stop\n        /* \"contracts/SafeSmartContract.sol\":481:522  mapping(address => Locker) public lockers */\n    tag_10:\n      mstore(0x20, 0x00)\n      dup1\n      0x00\n      mstore\n      keccak256(0x00, 0x40)\n      0x00\n      swap2\n      pop\n      swap1\n      pop\n      dup1\n      0x00\n      add\n      sload\n      swap1\n      dup1\n      0x01\n      add\n      sload\n      swap1\n      dup1\n      0x02\n      add\n      sload\n      swap1\n      pop\n      dup4\n      jump\t// out\n        /* \"contracts/SafeSmartContract.sol\":558:1048  function lockTokens(uint256 _amount, uint256 _durationInDays) public {\r... */\n    tag_16:\n        /* \"contracts/SafeSmartContract.sol\":672:673  0 */\n      0x00\n        /* \"contracts/SafeSmartContract.sol\":642:649  lockers */\n      dup1\n        /* \"contracts/SafeSmartContract.sol\":642:661  lockers[msg.sender] */\n      0x00\n        /* \"contracts/SafeSmartContract.sol\":650:660  msg.sender */\n      caller\n        /* \"contracts/SafeSmartContract.sol\":642:661  lockers[msg.sender] */\n      0xffffffffffffffffffffffffffffffffffffffff\n      and\n      0xffffffffffffffffffffffffffffffffffffffff\n      and\n      dup2\n      mstore\n      0x20\n      add\n      swap1\n      dup2\n      mstore\n      0x20\n      add\n      0x00\n      keccak256\n        /* \"contracts/SafeSmartContract.sol\":642:668  lockers[msg.sender].amount */\n      0x00\n      add\n      sload\n        /* \"contracts/SafeSmartContract.sol\":642:673  lockers[msg.sender].amount == 0 */\n      eq\n        /* \"contracts/SafeSmartContract.sol\":634:708  require(lockers[msg.sender].amount == 0, \"Zaten kilitli tokenleriniz var\") */\n      tag_22\n      jumpi\n      mload(0x40)\n      0x08c379a000000000000000000000000000000000000000000000000000000000\n      dup2\n      mstore\n      0x04\n      add\n      tag_23\n      swap1\n      tag_24\n      jump\t// in\n    tag_23:\n      mload(0x40)\n      dup1\n      swap2\n      sub\n      swap1\n      revert\n    tag_22:\n        /* \"contracts/SafeSmartContract.sol\":836:1044  Locker({\r... */\n      mload(0x40)\n      dup1\n      0x60\n      add\n      0x40\n      mstore\n      dup1\n        /* \"contracts/SafeSmartContract.sol\":862:869  _amount */\n      dup4\n        /* \"contracts/SafeSmartContract.sol\":836:1044  Locker({\r... */\n      dup2\n      mstore\n      0x20\n      add\n        /* \"contracts/SafeSmartContract.sol\":928:934  1 days */\n      0x015180\n        /* \"contracts/SafeSmartContract.sol\":910:925  _durationInDays */\n      dup4\n        /* \"contracts/SafeSmartContract.sol\":910:934  _durationInDays * 1 days */\n      tag_25\n      swap2\n      swap1\n      tag_26\n      jump\t// in\n    tag_25:\n        /* \"contracts/SafeSmartContract.sol\":892:907  block.timestamp */\n      timestamp\n        /* \"contracts/SafeSmartContract.sol\":892:934  block.timestamp + _durationInDays * 1 days */\n      tag_27\n      swap2\n      swap1\n      tag_28\n      jump\t// in\n    tag_27:\n        /* \"contracts/SafeSmartContract.sol\":836:1044  Locker({\r... */\n      dup2\n      mstore\n      0x20\n      add\n        /* \"contracts/SafeSmartContract.sol\":953:994  calculateReward(_amount, _durationInDays) */\n      tag_29\n        /* \"contracts/SafeSmartContract.sol\":969:976  _amount */\n      dup5\n        /* \"contracts/SafeSmartContract.sol\":978:993  _durationInDays */\n      dup5\n        /* \"contracts/SafeSmartContract.sol\":953:968  calculateReward */\n      tag_30\n        /* \"contracts/SafeSmartContract.sol\":953:994  calculateReward(_amount, _durationInDays) */\n      jump\t// in\n    tag_29:\n        /* \"contracts/SafeSmartContract.sol\":836:1044  Locker({\r... */\n      dup2\n      mstore\n      pop\n        /* \"contracts/SafeSmartContract.sol\":814:821  lockers */\n      0x00\n        /* \"contracts/SafeSmartContract.sol\":814:833  lockers[msg.sender] */\n      dup1\n        /* \"contracts/SafeSmartContract.sol\":822:832  msg.sender */\n      caller\n        /* \"contracts/SafeSmartContract.sol\":814:833  lockers[msg.sender] */\n      0xffffffffffffffffffffffffffffffffffffffff\n      and\n      0xffffffffffffffffffffffffffffffffffffffff\n      and\n      dup2\n      mstore\n      0x20\n      add\n      swap1\n      dup2\n      mstore\n      0x20\n      add\n      0x00\n      keccak256\n        /* \"contracts/SafeSmartContract.sol\":814:1044  lockers[msg.sender] = Locker({\r... */\n      0x00\n      dup3\n      add\n      mload\n      dup2\n      0x00\n      add\n      sstore\n      0x20\n      dup3\n      add\n      mload\n      dup2\n      0x01\n      add\n      sstore\n      0x40\n      dup3\n      add\n      mload\n      dup2\n      0x02\n      add\n      sstore\n      swap1\n      pop\n      pop\n        /* \"contracts/SafeSmartContract.sol\":558:1048  function lockTokens(uint256 _amount, uint256 _durationInDays) public {\r... */\n      pop\n      pop\n      jump\t// out\n        /* \"contracts/SafeSmartContract.sol\":1621:2228  function test() public {\r... */\n    tag_18:\n        /* \"contracts/SafeSmartContract.sol\":1695:1709  unlockTokens() */\n      tag_32\n        /* \"contracts/SafeSmartContract.sol\":1695:1707  unlockTokens */\n      tag_20\n        /* \"contracts/SafeSmartContract.sol\":1695:1709  unlockTokens() */\n      jump\t// in\n    tag_32:\n        /* \"contracts/SafeSmartContract.sol\":1766:1784  lockTokens(100, 0) */\n      tag_33\n        /* \"contracts/SafeSmartContract.sol\":1777:1780  100 */\n      0x64\n        /* \"contracts/SafeSmartContract.sol\":1782:1783  0 */\n      0x00\n        /* \"contracts/SafeSmartContract.sol\":1766:1776  lockTokens */\n      tag_16\n        /* \"contracts/SafeSmartContract.sol\":1766:1784  lockTokens(100, 0) */\n      jump\t// in\n    tag_33:\n        /* \"contracts/SafeSmartContract.sol\":1867:1870  100 */\n      0x64\n        /* \"contracts/SafeSmartContract.sol\":1837:1844  lockers */\n      0x00\n        /* \"contracts/SafeSmartContract.sol\":1837:1856  lockers[msg.sender] */\n      dup1\n        /* \"contracts/SafeSmartContract.sol\":1845:1855  msg.sender */\n      caller\n        /* \"contracts/SafeSmartContract.sol\":1837:1856  lockers[msg.sender] */\n      0xffffffffffffffffffffffffffffffffffffffff\n      and\n      0xffffffffffffffffffffffffffffffffffffffff\n      and\n      dup2\n      mstore\n      0x20\n      add\n      swap1\n      dup2\n      mstore\n      0x20\n      add\n      0x00\n      keccak256\n        /* \"contracts/SafeSmartContract.sol\":1837:1863  lockers[msg.sender].amount */\n      0x00\n      add\n      sload\n        /* \"contracts/SafeSmartContract.sol\":1837:1870  lockers[msg.sender].amount == 100 */\n      eq\n        /* \"contracts/SafeSmartContract.sol\":1830:1871  assert(lockers[msg.sender].amount == 100) */\n      tag_34\n      jumpi\n      mstore(0x00, 0x4e487b7100000000000000000000000000000000000000000000000000000000)\n      mstore(0x04, 0x01)\n      revert(0x00, 0x24)\n    tag_34:\n        /* \"contracts/SafeSmartContract.sol\":1923:1938  block.timestamp */\n      timestamp\n        /* \"contracts/SafeSmartContract.sol\":1889:1896  lockers */\n      0x00\n        /* \"contracts/SafeSmartContract.sol\":1889:1908  lockers[msg.sender] */\n      dup1\n        /* \"contracts/SafeSmartContract.sol\":1897:1907  msg.sender */\n      caller\n        /* \"contracts/SafeSmartContract.sol\":1889:1908  lockers[msg.sender] */\n      0xffffffffffffffffffffffffffffffffffffffff\n      and\n      0xffffffffffffffffffffffffffffffffffffffff\n      and\n      dup2\n      mstore\n      0x20\n      add\n      swap1\n      dup2\n      mstore\n      0x20\n      add\n      0x00\n      keccak256\n        /* \"contracts/SafeSmartContract.sol\":1889:1919  lockers[msg.sender].unlockTime */\n      0x01\n      add\n      sload\n        /* \"contracts/SafeSmartContract.sol\":1889:1938  lockers[msg.sender].unlockTime == block.timestamp */\n      eq\n        /* \"contracts/SafeSmartContract.sol\":1882:1939  assert(lockers[msg.sender].unlockTime == block.timestamp) */\n      tag_35\n      jumpi\n      mstore(0x00, 0x4e487b7100000000000000000000000000000000000000000000000000000000)\n      mstore(0x04, 0x01)\n      revert(0x00, 0x24)\n    tag_35:\n        /* \"contracts/SafeSmartContract.sol\":1989:2003  uint256 reward */\n      0x00\n        /* \"contracts/SafeSmartContract.sol\":2006:2013  lockers */\n      dup1\n        /* \"contracts/SafeSmartContract.sol\":2006:2025  lockers[msg.sender] */\n      0x00\n        /* \"contracts/SafeSmartContract.sol\":2014:2024  msg.sender */\n      caller\n        /* \"contracts/SafeSmartContract.sol\":2006:2025  lockers[msg.sender] */\n      0xffffffffffffffffffffffffffffffffffffffff\n      and\n      0xffffffffffffffffffffffffffffffffffffffff\n      and\n      dup2\n      mstore\n      0x20\n      add\n      swap1\n      dup2\n      mstore\n      0x20\n      add\n      0x00\n      keccak256\n        /* \"contracts/SafeSmartContract.sol\":2006:2032  lockers[msg.sender].reward */\n      0x02\n      add\n      sload\n        /* \"contracts/SafeSmartContract.sol\":1989:2032  uint256 reward = lockers[msg.sender].reward */\n      swap1\n      pop\n        /* \"contracts/SafeSmartContract.sol\":2060:2061  0 */\n      0x00\n        /* \"contracts/SafeSmartContract.sol\":2050:2056  reward */\n      dup2\n        /* \"contracts/SafeSmartContract.sol\":2050:2061  reward == 0 */\n      eq\n        /* \"contracts/SafeSmartContract.sol\":2043:2062  assert(reward == 0) */\n      tag_36\n      jumpi\n      mstore(0x00, 0x4e487b7100000000000000000000000000000000000000000000000000000000)\n      mstore(0x04, 0x01)\n      revert(0x00, 0x24)\n    tag_36:\n        /* \"contracts/SafeSmartContract.sol\":2156:2170  unlockTokens() */\n      tag_37\n        /* \"contracts/SafeSmartContract.sol\":2156:2168  unlockTokens */\n      tag_20\n        /* \"contracts/SafeSmartContract.sol\":2156:2170  unlockTokens() */\n      jump\t// in\n    tag_37:\n        /* \"contracts/SafeSmartContract.sol\":2218:2219  0 */\n      0x00\n        /* \"contracts/SafeSmartContract.sol\":2188:2195  lockers */\n      dup1\n        /* \"contracts/SafeSmartContract.sol\":2188:2207  lockers[msg.sender] */\n      0x00\n        /* \"contracts/SafeSmartContract.sol\":2196:2206  msg.sender */\n      caller\n        /* \"contracts/SafeSmartContract.sol\":2188:2207  lockers[msg.sender] */\n      0xffffffffffffffffffffffffffffffffffffffff\n      and\n      0xffffffffffffffffffffffffffffffffffffffff\n      and\n      dup2\n      mstore\n      0x20\n      add\n      swap1\n      dup2\n      mstore\n      0x20\n      add\n      0x00\n      keccak256\n        /* \"contracts/SafeSmartContract.sol\":2188:2214  lockers[msg.sender].amount */\n      0x00\n      add\n      sload\n        /* \"contracts/SafeSmartContract.sol\":2188:2219  lockers[msg.sender].amount == 0 */\n      eq\n        /* \"contracts/SafeSmartContract.sol\":2181:2220  assert(lockers[msg.sender].amount == 0) */\n      tag_38\n      jumpi\n      mstore(0x00, 0x4e487b7100000000000000000000000000000000000000000000000000000000)\n      mstore(0x04, 0x01)\n      revert(0x00, 0x24)\n    tag_38:\n        /* \"contracts/SafeSmartContract.sol\":1621:2228  function test() public {\r... */\n      pop\n      jump\t// out\n        /* \"contracts/SafeSmartContract.sol\":1088:1364  function unlockTokens() public {\r... */\n    tag_20:\n        /* \"contracts/SafeSmartContract.sol\":1169:1184  block.timestamp */\n      timestamp\n        /* \"contracts/SafeSmartContract.sol\":1135:1142  lockers */\n      0x00\n        /* \"contracts/SafeSmartContract.sol\":1135:1154  lockers[msg.sender] */\n      dup1\n        /* \"contracts/SafeSmartContract.sol\":1143:1153  msg.sender */\n      caller\n        /* \"contracts/SafeSmartContract.sol\":1135:1154  lockers[msg.sender] */\n      0xffffffffffffffffffffffffffffffffffffffff\n      and\n      0xffffffffffffffffffffffffffffffffffffffff\n      and\n      dup2\n      mstore\n      0x20\n      add\n      swap1\n      dup2\n      mstore\n      0x20\n      add\n      0x00\n      keccak256\n        /* \"contracts/SafeSmartContract.sol\":1135:1165  lockers[msg.sender].unlockTime */\n      0x01\n      add\n      sload\n        /* \"contracts/SafeSmartContract.sol\":1135:1184  lockers[msg.sender].unlockTime <= block.timestamp */\n      gt\n      iszero\n        /* \"contracts/SafeSmartContract.sol\":1127:1225  require(lockers[msg.sender].unlockTime <= block.timestamp , \"Henuz kilidin acilma zamani gelmedi\") */\n      tag_40\n      jumpi\n      mload(0x40)\n      0x08c379a000000000000000000000000000000000000000000000000000000000\n      dup2\n      mstore\n      0x04\n      add\n      tag_41\n      swap1\n      tag_42\n      jump\t// in\n    tag_41:\n      mload(0x40)\n      dup1\n      swap2\n      sub\n      swap1\n      revert\n    tag_40:\n        /* \"contracts/SafeSmartContract.sol\":1359:1360  0 */\n      0x00\n        /* \"contracts/SafeSmartContract.sol\":1330:1337  lockers */\n      dup1\n        /* \"contracts/SafeSmartContract.sol\":1330:1349  lockers[msg.sender] */\n      0x00\n        /* \"contracts/SafeSmartContract.sol\":1338:1348  msg.sender */\n      caller\n        /* \"contracts/SafeSmartContract.sol\":1330:1349  lockers[msg.sender] */\n      0xffffffffffffffffffffffffffffffffffffffff\n      and\n      0xffffffffffffffffffffffffffffffffffffffff\n      and\n      dup2\n      mstore\n      0x20\n      add\n      swap1\n      dup2\n      mstore\n      0x20\n      add\n      0x00\n      keccak256\n        /* \"contracts/SafeSmartContract.sol\":1330:1356  lockers[msg.sender].amount */\n      0x00\n      add\n        /* \"contracts/SafeSmartContract.sol\":1330:1360  lockers[msg.sender].amount = 0 */\n      dup2\n      swap1\n      sstore\n      pop\n        /* \"contracts/SafeSmartContract.sol\":1088:1364  function unlockTokens() public {\r... */\n      jump\t// out\n        /* \"contracts/SafeSmartContract.sol\":1369:1617  function calculateReward(uint256 _amount, uint256 _durationInDays) internal pure returns (uint256) {\r... */\n    tag_30:\n        /* \"contracts/SafeSmartContract.sol\":1459:1466  uint256 */\n      0x00\n        /* \"contracts/SafeSmartContract.sol\":1606:1609  100 */\n      0x64\n        /* \"contracts/SafeSmartContract.sol\":1588:1603  _durationInDays */\n      dup3\n        /* \"contracts/SafeSmartContract.sol\":1578:1585  _amount */\n      dup5\n        /* \"contracts/SafeSmartContract.sol\":1578:1603  _amount * _durationInDays */\n      tag_44\n      swap2\n      swap1\n      tag_26\n      jump\t// in\n    tag_44:\n        /* \"contracts/SafeSmartContract.sol\":1578:1609  _amount * _durationInDays / 100 */\n      tag_45\n      swap2\n      swap1\n      tag_46\n      jump\t// in\n    tag_45:\n        /* \"contracts/SafeSmartContract.sol\":1571:1609  return _amount * _durationInDays / 100 */\n      swap1\n      pop\n        /* \"contracts/SafeSmartContract.sol\":1369:1617  function calculateReward(uint256 _amount, uint256 _durationInDays) internal pure returns (uint256) {\r... */\n      swap3\n      swap2\n      pop\n      pop\n      jump\t// out\n        /* \"#utility.yul\":7:146   */\n    tag_48:\n      0x00\n        /* \"#utility.yul\":91:97   */\n      dup2\n        /* \"#utility.yul\":78:98   */\n      calldataload\n        /* \"#utility.yul\":69:98   */\n      swap1\n      pop\n        /* \"#utility.yul\":107:140   */\n      tag_50\n        /* \"#utility.yul\":134:139   */\n      dup2\n        /* \"#utility.yul\":107:140   */\n      tag_51\n      jump\t// in\n    tag_50:\n        /* \"#utility.yul\":59:146   */\n      swap3\n      swap2\n      pop\n      pop\n      jump\t// out\n        /* \"#utility.yul\":152:291   */\n    tag_52:\n      0x00\n        /* \"#utility.yul\":236:242   */\n      dup2\n        /* \"#utility.yul\":223:243   */\n      calldataload\n        /* \"#utility.yul\":214:243   */\n      swap1\n      pop\n        /* \"#utility.yul\":252:285   */\n      tag_54\n        /* \"#utility.yul\":279:284   */\n      dup2\n        /* \"#utility.yul\":252:285   */\n      tag_55\n      jump\t// in\n    tag_54:\n        /* \"#utility.yul\":204:291   */\n      swap3\n      swap2\n      pop\n      pop\n      jump\t// out\n        /* \"#utility.yul\":297:559   */\n    tag_9:\n      0x00\n        /* \"#utility.yul\":405:407   */\n      0x20\n        /* \"#utility.yul\":393:402   */\n      dup3\n        /* \"#utility.yul\":384:391   */\n      dup5\n        /* \"#utility.yul\":380:403   */\n      sub\n        /* \"#utility.yul\":376:408   */\n      slt\n        /* \"#utility.yul\":373:375   */\n      iszero\n      tag_57\n      jumpi\n        /* \"#utility.yul\":421:422   */\n      0x00\n        /* \"#utility.yul\":418:419   */\n      dup1\n        /* \"#utility.yul\":411:423   */\n      revert\n        /* \"#utility.yul\":373:375   */\n    tag_57:\n        /* \"#utility.yul\":464:465   */\n      0x00\n        /* \"#utility.yul\":489:542   */\n      tag_58\n        /* \"#utility.yul\":534:541   */\n      dup5\n        /* \"#utility.yul\":525:531   */\n      dup3\n        /* \"#utility.yul\":514:523   */\n      dup6\n        /* \"#utility.yul\":510:532   */\n      add\n        /* \"#utility.yul\":489:542   */\n      tag_48\n      jump\t// in\n    tag_58:\n        /* \"#utility.yul\":479:542   */\n      swap2\n      pop\n        /* \"#utility.yul\":435:552   */\n      pop\n        /* \"#utility.yul\":363:559   */\n      swap3\n      swap2\n      pop\n      pop\n      jump\t// out\n        /* \"#utility.yul\":565:972   */\n    tag_15:\n      0x00\n      dup1\n        /* \"#utility.yul\":690:692   */\n      0x40\n        /* \"#utility.yul\":678:687   */\n      dup4\n        /* \"#utility.yul\":669:676   */\n      dup6\n        /* \"#utility.yul\":665:688   */\n      sub\n        /* \"#utility.yul\":661:693   */\n      slt\n        /* \"#utility.yul\":658:660   */\n      iszero\n      tag_60\n      jumpi\n        /* \"#utility.yul\":706:707   */\n      0x00\n        /* \"#utility.yul\":703:704   */\n      dup1\n        /* \"#utility.yul\":696:708   */\n      revert\n        /* \"#utility.yul\":658:660   */\n    tag_60:\n        /* \"#utility.yul\":749:750   */\n      0x00\n        /* \"#utility.yul\":774:827   */\n      tag_61\n        /* \"#utility.yul\":819:826   */\n      dup6\n        /* \"#utility.yul\":810:816   */\n      dup3\n        /* \"#utility.yul\":799:808   */\n      dup7\n        /* \"#utility.yul\":795:817   */\n      add\n        /* \"#utility.yul\":774:827   */\n      tag_52\n      jump\t// in\n    tag_61:\n        /* \"#utility.yul\":764:827   */\n      swap3\n      pop\n        /* \"#utility.yul\":720:837   */\n      pop\n        /* \"#utility.yul\":876:878   */\n      0x20\n        /* \"#utility.yul\":902:955   */\n      tag_62\n        /* \"#utility.yul\":947:954   */\n      dup6\n        /* \"#utility.yul\":938:944   */\n      dup3\n        /* \"#utility.yul\":927:936   */\n      dup7\n        /* \"#utility.yul\":923:945   */\n      add\n        /* \"#utility.yul\":902:955   */\n      tag_52\n      jump\t// in\n    tag_62:\n        /* \"#utility.yul\":892:955   */\n      swap2\n      pop\n        /* \"#utility.yul\":847:965   */\n      pop\n        /* \"#utility.yul\":648:972   */\n      swap3\n      pop\n      swap3\n      swap1\n      pop\n      jump\t// out\n        /* \"#utility.yul\":978:1345   */\n    tag_63:\n      0x00\n        /* \"#utility.yul\":1141:1208   */\n      tag_65\n        /* \"#utility.yul\":1205:1207   */\n      0x23\n        /* \"#utility.yul\":1200:1203   */\n      dup4\n        /* \"#utility.yul\":1141:1208   */\n      tag_66\n      jump\t// in\n    tag_65:\n        /* \"#utility.yul\":1134:1208   */\n      swap2\n      pop\n        /* \"#utility.yul\":1238:1272   */\n      0x48656e757a206b696c6964696e206163696c6d61207a616d616e692067656c6d\n        /* \"#utility.yul\":1234:1235   */\n      0x00\n        /* \"#utility.yul\":1229:1232   */\n      dup4\n        /* \"#utility.yul\":1225:1236   */\n      add\n        /* \"#utility.yul\":1218:1273   */\n      mstore\n        /* \"#utility.yul\":1304:1309   */\n      0x6564690000000000000000000000000000000000000000000000000000000000\n        /* \"#utility.yul\":1299:1301   */\n      0x20\n        /* \"#utility.yul\":1294:1297   */\n      dup4\n        /* \"#utility.yul\":1290:1302   */\n      add\n        /* \"#utility.yul\":1283:1310   */\n      mstore\n        /* \"#utility.yul\":1336:1338   */\n      0x40\n        /* \"#utility.yul\":1331:1334   */\n      dup3\n        /* \"#utility.yul\":1327:1339   */\n      add\n        /* \"#utility.yul\":1320:1339   */\n      swap1\n      pop\n        /* \"#utility.yul\":1124:1345   */\n      swap2\n      swap1\n      pop\n      jump\t// out\n        /* \"#utility.yul\":1351:1679   */\n    tag_67:\n      0x00\n        /* \"#utility.yul\":1514:1581   */\n      tag_69\n        /* \"#utility.yul\":1578:1580   */\n      0x1e\n        /* \"#utility.yul\":1573:1576   */\n      dup4\n        /* \"#utility.yul\":1514:1581   */\n      tag_66\n      jump\t// in\n    tag_69:\n        /* \"#utility.yul\":1507:1581   */\n      swap2\n      pop\n        /* \"#utility.yul\":1611:1643   */\n      0x5a6174656e206b696c69746c6920746f6b656e6c6572696e697a207661720000\n        /* \"#utility.yul\":1607:1608   */\n      0x00\n        /* \"#utility.yul\":1602:1605   */\n      dup4\n        /* \"#utility.yul\":1598:1609   */\n      add\n        /* \"#utility.yul\":1591:1644   */\n      mstore\n        /* \"#utility.yul\":1670:1672   */\n      0x20\n        /* \"#utility.yul\":1665:1668   */\n      dup3\n        /* \"#utility.yul\":1661:1673   */\n      add\n        /* \"#utility.yul\":1654:1673   */\n      swap1\n      pop\n        /* \"#utility.yul\":1497:1679   */\n      swap2\n      swap1\n      pop\n      jump\t// out\n        /* \"#utility.yul\":1685:1803   */\n    tag_70:\n        /* \"#utility.yul\":1772:1796   */\n      tag_72\n        /* \"#utility.yul\":1790:1795   */\n      dup2\n        /* \"#utility.yul\":1772:1796   */\n      tag_73\n      jump\t// in\n    tag_72:\n        /* \"#utility.yul\":1767:1770   */\n      dup3\n        /* \"#utility.yul\":1760:1797   */\n      mstore\n        /* \"#utility.yul\":1750:1803   */\n      pop\n      pop\n      jump\t// out\n        /* \"#utility.yul\":1809:2228   */\n    tag_42:\n      0x00\n        /* \"#utility.yul\":2013:2015   */\n      0x20\n        /* \"#utility.yul\":2002:2011   */\n      dup3\n        /* \"#utility.yul\":1998:2016   */\n      add\n        /* \"#utility.yul\":1990:2016   */\n      swap1\n      pop\n        /* \"#utility.yul\":2062:2071   */\n      dup2\n        /* \"#utility.yul\":2056:2060   */\n      dup2\n        /* \"#utility.yul\":2052:2072   */\n      sub\n        /* \"#utility.yul\":2048:2049   */\n      0x00\n        /* \"#utility.yul\":2037:2046   */\n      dup4\n        /* \"#utility.yul\":2033:2050   */\n      add\n        /* \"#utility.yul\":2026:2073   */\n      mstore\n        /* \"#utility.yul\":2090:2221   */\n      tag_75\n        /* \"#utility.yul\":2216:2220   */\n      dup2\n        /* \"#utility.yul\":2090:2221   */\n      tag_63\n      jump\t// in\n    tag_75:\n        /* \"#utility.yul\":2082:2221   */\n      swap1\n      pop\n        /* \"#utility.yul\":1980:2228   */\n      swap2\n      swap1\n      pop\n      jump\t// out\n        /* \"#utility.yul\":2234:2653   */\n    tag_24:\n      0x00\n        /* \"#utility.yul\":2438:2440   */\n      0x20\n        /* \"#utility.yul\":2427:2436   */\n      dup3\n        /* \"#utility.yul\":2423:2441   */\n      add\n        /* \"#utility.yul\":2415:2441   */\n      swap1\n      pop\n        /* \"#utility.yul\":2487:2496   */\n      dup2\n        /* \"#utility.yul\":2481:2485   */\n      dup2\n        /* \"#utility.yul\":2477:2497   */\n      sub\n        /* \"#utility.yul\":2473:2474   */\n      0x00\n        /* \"#utility.yul\":2462:2471   */\n      dup4\n        /* \"#utility.yul\":2458:2475   */\n      add\n        /* \"#utility.yul\":2451:2498   */\n      mstore\n        /* \"#utility.yul\":2515:2646   */\n      tag_77\n        /* \"#utility.yul\":2641:2645   */\n      dup2\n        /* \"#utility.yul\":2515:2646   */\n      tag_67\n      jump\t// in\n    tag_77:\n        /* \"#utility.yul\":2507:2646   */\n      swap1\n      pop\n        /* \"#utility.yul\":2405:2653   */\n      swap2\n      swap1\n      pop\n      jump\t// out\n        /* \"#utility.yul\":2659:3101   */\n    tag_12:\n      0x00\n        /* \"#utility.yul\":2846:2848   */\n      0x60\n        /* \"#utility.yul\":2835:2844   */\n      dup3\n        /* \"#utility.yul\":2831:2849   */\n      add\n        /* \"#utility.yul\":2823:2849   */\n      swap1\n      pop\n        /* \"#utility.yul\":2859:2930   */\n      tag_79\n        /* \"#utility.yul\":2927:2928   */\n      0x00\n        /* \"#utility.yul\":2916:2925   */\n      dup4\n        /* \"#utility.yul\":2912:2929   */\n      add\n        /* \"#utility.yul\":2903:2909   */\n      dup7\n        /* \"#utility.yul\":2859:2930   */\n      tag_70\n      jump\t// in\n    tag_79:\n        /* \"#utility.yul\":2940:3012   */\n      tag_80\n        /* \"#utility.yul\":3008:3010   */\n      0x20\n        /* \"#utility.yul\":2997:3006   */\n      dup4\n        /* \"#utility.yul\":2993:3011   */\n      add\n        /* \"#utility.yul\":2984:2990   */\n      dup6\n        /* \"#utility.yul\":2940:3012   */\n      tag_70\n      jump\t// in\n    tag_80:\n        /* \"#utility.yul\":3022:3094   */\n      tag_81\n        /* \"#utility.yul\":3090:3092   */\n      0x40\n        /* \"#utility.yul\":3079:3088   */\n      dup4\n        /* \"#utility.yul\":3075:3093   */\n      add\n        /* \"#utility.yul\":3066:3072   */\n      dup5\n        /* \"#utility.yul\":3022:3094   */\n      tag_70\n      jump\t// in\n    tag_81:\n        /* \"#utility.yul\":2813:3101   */\n      swap5\n      swap4\n      pop\n      pop\n      pop\n      pop\n      jump\t// out\n        /* \"#utility.yul\":3107:3276   */\n    tag_66:\n      0x00\n        /* \"#utility.yul\":3225:3231   */\n      dup3\n        /* \"#utility.yul\":3220:3223   */\n      dup3\n        /* \"#utility.yul\":3213:3232   */\n      mstore\n        /* \"#utility.yul\":3265:3269   */\n      0x20\n        /* \"#utility.yul\":3260:3263   */\n      dup3\n        /* \"#utility.yul\":3256:3270   */\n      add\n        /* \"#utility.yul\":3241:3270   */\n      swap1\n      pop\n        /* \"#utility.yul\":3203:3276   */\n      swap3\n      swap2\n      pop\n      pop\n      jump\t// out\n        /* \"#utility.yul\":3282:3587   */\n    tag_28:\n      0x00\n        /* \"#utility.yul\":3341:3361   */\n      tag_84\n        /* \"#utility.yul\":3359:3360   */\n      dup3\n        /* \"#utility.yul\":3341:3361   */\n      tag_73\n      jump\t// in\n    tag_84:\n        /* \"#utility.yul\":3336:3361   */\n      swap2\n      pop\n        /* \"#utility.yul\":3375:3395   */\n      tag_85\n        /* \"#utility.yul\":3393:3394   */\n      dup4\n        /* \"#utility.yul\":3375:3395   */\n      tag_73\n      jump\t// in\n    tag_85:\n        /* \"#utility.yul\":3370:3395   */\n      swap3\n      pop\n        /* \"#utility.yul\":3529:3530   */\n      dup3\n        /* \"#utility.yul\":3461:3527   */\n      0xffffffffffffffffffffffffffffffffffffffffffffffffffffffffffffffff\n        /* \"#utility.yul\":3457:3531   */\n      sub\n        /* \"#utility.yul\":3454:3455   */\n      dup3\n        /* \"#utility.yul\":3451:3532   */\n      gt\n        /* \"#utility.yul\":3448:3450   */\n      iszero\n      tag_86\n      jumpi\n        /* \"#utility.yul\":3535:3553   */\n      tag_87\n      tag_88\n      jump\t// in\n    tag_87:\n        /* \"#utility.yul\":3448:3450   */\n    tag_86:\n        /* \"#utility.yul\":3579:3580   */\n      dup3\n        /* \"#utility.yul\":3576:3577   */\n      dup3\n        /* \"#utility.yul\":3572:3581   */\n      add\n        /* \"#utility.yul\":3565:3581   */\n      swap1\n      pop\n        /* \"#utility.yul\":3326:3587   */\n      swap3\n      swap2\n      pop\n      pop\n      jump\t// out\n        /* \"#utility.yul\":3593:3778   */\n    tag_46:\n      0x00\n        /* \"#utility.yul\":3650:3670   */\n      tag_90\n        /* \"#utility.yul\":3668:3669   */\n      dup3\n        /* \"#utility.yul\":3650:3670   */\n      tag_73\n      jump\t// in\n    tag_90:\n        /* \"#utility.yul\":3645:3670   */\n      swap2\n      pop\n        /* \"#utility.yul\":3684:3704   */\n      tag_91\n        /* \"#utility.yul\":3702:3703   */\n      dup4\n        /* \"#utility.yul\":3684:3704   */\n      tag_73\n      jump\t// in\n    tag_91:\n        /* \"#utility.yul\":3679:3704   */\n      swap3\n      pop\n        /* \"#utility.yul\":3723:3724   */\n      dup3\n        /* \"#utility.yul\":3713:3715   */\n      tag_92\n      jumpi\n        /* \"#utility.yul\":3728:3746   */\n      tag_93\n      tag_94\n      jump\t// in\n    tag_93:\n        /* \"#utility.yul\":3713:3715   */\n    tag_92:\n        /* \"#utility.yul\":3770:3771   */\n      dup3\n        /* \"#utility.yul\":3767:3768   */\n      dup3\n        /* \"#utility.yul\":3763:3772   */\n      div\n        /* \"#utility.yul\":3758:3772   */\n      swap1\n      pop\n        /* \"#utility.yul\":3635:3778   */\n      swap3\n      swap2\n      pop\n      pop\n      jump\t// out\n        /* \"#utility.yul\":3784:4132   */\n    tag_26:\n      0x00\n        /* \"#utility.yul\":3847:3867   */\n      tag_96\n        /* \"#utility.yul\":3865:3866   */\n      dup3\n        /* \"#utility.yul\":3847:3867   */\n      tag_73\n      jump\t// in\n    tag_96:\n        /* \"#utility.yul\":3842:3867   */\n      swap2\n      pop\n        /* \"#utility.yul\":3881:3901   */\n      tag_97\n        /* \"#utility.yul\":3899:3900   */\n      dup4\n        /* \"#utility.yul\":3881:3901   */\n      tag_73\n      jump\t// in\n    tag_97:\n        /* \"#utility.yul\":3876:3901   */\n      swap3\n      pop\n        /* \"#utility.yul\":4069:4070   */\n      dup2\n        /* \"#utility.yul\":4001:4067   */\n      0xffffffffffffffffffffffffffffffffffffffffffffffffffffffffffffffff\n        /* \"#utility.yul\":3997:4071   */\n      div\n        /* \"#utility.yul\":3994:3995   */\n      dup4\n        /* \"#utility.yul\":3991:4072   */\n      gt\n        /* \"#utility.yul\":3986:3987   */\n      dup3\n        /* \"#utility.yul\":3979:3988   */\n      iszero\n        /* \"#utility.yul\":3972:3989   */\n      iszero\n        /* \"#utility.yul\":3968:4073   */\n      and\n        /* \"#utility.yul\":3965:3967   */\n      iszero\n      tag_98\n      jumpi\n        /* \"#utility.yul\":4076:4094   */\n      tag_99\n      tag_88\n      jump\t// in\n    tag_99:\n        /* \"#utility.yul\":3965:3967   */\n    tag_98:\n        /* \"#utility.yul\":4124:4125   */\n      dup3\n        /* \"#utility.yul\":4121:4122   */\n      dup3\n        /* \"#utility.yul\":4117:4126   */\n      mul\n        /* \"#utility.yul\":4106:4126   */\n      swap1\n      pop\n        /* \"#utility.yul\":3832:4132   */\n      swap3\n      swap2\n      pop\n      pop\n      jump\t// out\n        /* \"#utility.yul\":4138:4234   */\n    tag_100:\n      0x00\n        /* \"#utility.yul\":4204:4228   */\n      tag_102\n        /* \"#utility.yul\":4222:4227   */\n      dup3\n        /* \"#utility.yul\":4204:4228   */\n      tag_103\n      jump\t// in\n    tag_102:\n        /* \"#utility.yul\":4193:4228   */\n      swap1\n      pop\n        /* \"#utility.yul\":4183:4234   */\n      swap2\n      swap1\n      pop\n      jump\t// out\n        /* \"#utility.yul\":4240:4366   */\n    tag_103:\n      0x00\n        /* \"#utility.yul\":4317:4359   */\n      0xffffffffffffffffffffffffffffffffffffffff\n        /* \"#utility.yul\":4310:4315   */\n      dup3\n        /* \"#utility.yul\":4306:4360   */\n      and\n        /* \"#utility.yul\":4295:4360   */\n      swap1\n      pop\n        /* \"#utility.yul\":4285:4366   */\n      swap2\n      swap1\n      pop\n      jump\t// out\n        /* \"#utility.yul\":4372:4449   */\n    tag_73:\n      0x00\n        /* \"#utility.yul\":4438:4443   */\n      dup2\n        /* \"#utility.yul\":4427:4443   */\n      swap1\n      pop\n        /* \"#utility.yul\":4417:4449   */\n      swap2\n      swap1\n      pop\n      jump\t// out\n        /* \"#utility.yul\":4455:4635   */\n    tag_88:\n        /* \"#utility.yul\":4503:4580   */\n      0x4e487b7100000000000000000000000000000000000000000000000000000000\n        /* \"#utility.yul\":4500:4501   */\n      0x00\n        /* \"#utility.yul\":4493:4581   */\n      mstore\n        /* \"#utility.yul\":4600:4604   */\n      0x11\n        /* \"#utility.yul\":4597:4598   */\n      0x04\n        /* \"#utility.yul\":4590:4605   */\n      mstore\n        /* \"#utility.yul\":4624:4628   */\n      0x24\n        /* \"#utility.yul\":4621:4622   */\n      0x00\n        /* \"#utility.yul\":4614:4629   */\n      revert\n        /* \"#utility.yul\":4641:4821   */\n    tag_94:\n        /* \"#utility.yul\":4689:4766   */\n      0x4e487b7100000000000000000000000000000000000000000000000000000000\n        /* \"#utility.yul\":4686:4687   */\n      0x00\n        /* \"#utility.yul\":4679:4767   */\n      mstore\n        /* \"#utility.yul\":4786:4790   */\n      0x12\n        /* \"#utility.yul\":4783:4784   */\n      0x04\n        /* \"#utility.yul\":4776:4791   */\n      mstore\n        /* \"#utility.yul\":4810:4814   */\n      0x24\n        /* \"#utility.yul\":4807:4808   */\n      0x00\n        /* \"#utility.yul\":4800:4815   */\n      revert\n        /* \"#utility.yul\":4827:4949   */\n    tag_51:\n        /* \"#utility.yul\":4900:4924   */\n      tag_109\n        /* \"#utility.yul\":4918:4923   */\n      dup2\n        /* \"#utility.yul\":4900:4924   */\n      tag_100\n      jump\t// in\n    tag_109:\n        /* \"#utility.yul\":4893:4898   */\n      dup2\n        /* \"#utility.yul\":4890:4925   */\n      eq\n        /* \"#utility.yul\":4880:4882   */\n      tag_110\n      jumpi\n        /* \"#utility.yul\":4939:4940   */\n      0x00\n        /* \"#utility.yul\":4936:4937   */\n      dup1\n        /* \"#utility.yul\":4929:4941   */\n      revert\n        /* \"#utility.yul\":4880:4882   */\n    tag_110:\n        /* \"#utility.yul\":4870:4949   */\n      pop\n      jump\t// out\n        /* \"#utility.yul\":4955:5077   */\n    tag_55:\n        /* \"#utility.yul\":5028:5052   */\n      tag_112\n        /* \"#utility.yul\":5046:5051   */\n      dup2\n        /* \"#utility.yul\":5028:5052   */\n      tag_73\n      jump\t// in\n    tag_112:\n        /* \"#utility.yul\":5021:5026   */\n      dup2\n        /* \"#utility.yul\":5018:5053   */\n      eq\n        /* \"#utility.yul\":5008:5010   */\n      tag_113\n      jumpi\n        /* \"#utility.yul\":5067:5068   */\n      0x00\n        /* \"#utility.yul\":5064:5065   */\n      dup1\n        /* \"#utility.yul\":5057:5069   */\n      revert\n        /* \"#utility.yul\":5008:5010   */\n    tag_113:\n        /* \"#utility.yul\":4998:5077   */\n      pop\n      jump\t// out\n\n    auxdata: 0xa264697066735822122087fe1df7c73e7f47202938578c0a80b0018eb1651e618fe0695dbf9c817185d764736f6c63430008000033\n}\n",
				"bytecode": {
					"linkReferences": {},
					"object": "608060405234801561001057600080fd5b5061089e806100206000396000f3fe608060405234801561001057600080fd5b506004361061004c5760003560e01c80632c8e7a211461005157806389158d8e14610083578063f8a8fd6d1461009f578063f968f493146100a9575b600080fd5b61006b6004803603810190610066919061051d565b6100b3565b60405161007a93929190610677565b60405180910390f35b61009d60048036038101906100989190610546565b6100dd565b005b6100a7610201565b005b6100b1610404565b005b60006020528060005260406000206000915090508060000154908060010154908060020154905083565b60008060003373ffffffffffffffffffffffffffffffffffffffff1673ffffffffffffffffffffffffffffffffffffffff1681526020019081526020016000206000015414610161576040517f08c379a000000000000000000000000000000000000000000000000000000000815260040161015890610657565b60405180910390fd5b604051806060016040528083815260200162015180836101819190610746565b4261018c91906106bf565b815260200161019b84846104d1565b8152506000803373ffffffffffffffffffffffffffffffffffffffff1673ffffffffffffffffffffffffffffffffffffffff1681526020019081526020016000206000820151816000015560208201518160010155604082015181600201559050505050565b610209610404565b610215606460006100dd565b60646000803373ffffffffffffffffffffffffffffffffffffffff1673ffffffffffffffffffffffffffffffffffffffff168152602001908152602001600020600001541461028d577f4e487b7100000000000000000000000000000000000000000000000000000000600052600160045260246000fd5b426000803373ffffffffffffffffffffffffffffffffffffffff1673ffffffffffffffffffffffffffffffffffffffff1681526020019081526020016000206001015414610304577f4e487b7100000000000000000000000000000000000000000000000000000000600052600160045260246000fd5b60008060003373ffffffffffffffffffffffffffffffffffffffff1673ffffffffffffffffffffffffffffffffffffffff16815260200190815260200160002060020154905060008114610381577f4e487b7100000000000000000000000000000000000000000000000000000000600052600160045260246000fd5b610389610404565b60008060003373ffffffffffffffffffffffffffffffffffffffff1673ffffffffffffffffffffffffffffffffffffffff1681526020019081526020016000206000015414610401577f4e487b7100000000000000000000000000000000000000000000000000000000600052600160045260246000fd5b50565b426000803373ffffffffffffffffffffffffffffffffffffffff1673ffffffffffffffffffffffffffffffffffffffff168152602001908152602001600020600101541115610488576040517f08c379a000000000000000000000000000000000000000000000000000000000815260040161047f90610637565b60405180910390fd5b60008060003373ffffffffffffffffffffffffffffffffffffffff1673ffffffffffffffffffffffffffffffffffffffff16815260200190815260200160002060000181905550565b6000606482846104e19190610746565b6104eb9190610715565b905092915050565b6000813590506105028161083a565b92915050565b60008135905061051781610851565b92915050565b60006020828403121561052f57600080fd5b600061053d848285016104f3565b91505092915050565b6000806040838503121561055957600080fd5b600061056785828601610508565b925050602061057885828601610508565b9150509250929050565b600061058f6023836106ae565b91507f48656e757a206b696c6964696e206163696c6d61207a616d616e692067656c6d60008301527f65646900000000000000000000000000000000000000000000000000000000006020830152604082019050919050565b60006105f5601e836106ae565b91507f5a6174656e206b696c69746c6920746f6b656e6c6572696e697a2076617200006000830152602082019050919050565b610631816107d2565b82525050565b6000602082019050818103600083015261065081610582565b9050919050565b60006020820190508181036000830152610670816105e8565b9050919050565b600060608201905061068c6000830186610628565b6106996020830185610628565b6106a66040830184610628565b949350505050565b600082825260208201905092915050565b60006106ca826107d2565b91506106d5836107d2565b9250827fffffffffffffffffffffffffffffffffffffffffffffffffffffffffffffffff0382111561070a576107096107dc565b5b828201905092915050565b6000610720826107d2565b915061072b836107d2565b92508261073b5761073a61080b565b5b828204905092915050565b6000610751826107d2565b915061075c836107d2565b9250817fffffffffffffffffffffffffffffffffffffffffffffffffffffffffffffffff0483118215151615610795576107946107dc565b5b828202905092915050565b60006107ab826107b2565b9050919050565b600073ffffffffffffffffffffffffffffffffffffffff82169050919050565b6000819050919050565b7f4e487b7100000000000000000000000000000000000000000000000000000000600052601160045260246000fd5b7f4e487b7100000000000000000000000000000000000000000000000000000000600052601260045260246000fd5b610843816107a0565b811461084e57600080fd5b50565b61085a816107d2565b811461086557600080fd5b5056fea264697066735822122087fe1df7c73e7f47202938578c0a80b0018eb1651e618fe0695dbf9c817185d764736f6c63430008000033",
					"opcodes": "PUSH1 0x80 PUSH1 0x40 MSTORE CALLVALUE DUP1 ISZERO PUSH2 0x10 JUMPI PUSH1 0x0 DUP1 REVERT JUMPDEST POP PUSH2 0x89E DUP1 PUSH2 0x20 PUSH1 0x0 CODECOPY PUSH1 0x0 RETURN INVALID PUSH1 0x80 PUSH1 0x40 MSTORE CALLVALUE DUP1 ISZERO PUSH2 0x10 JUMPI PUSH1 0x0 DUP1 REVERT JUMPDEST POP PUSH1 0x4 CALLDATASIZE LT PUSH2 0x4C JUMPI PUSH1 0x0 CALLDATALOAD PUSH1 0xE0 SHR DUP1 PUSH4 0x2C8E7A21 EQ PUSH2 0x51 JUMPI DUP1 PUSH4 0x89158D8E EQ PUSH2 0x83 JUMPI DUP1 PUSH4 0xF8A8FD6D EQ PUSH2 0x9F JUMPI DUP1 PUSH4 0xF968F493 EQ PUSH2 0xA9 JUMPI JUMPDEST PUSH1 0x0 DUP1 REVERT JUMPDEST PUSH2 0x6B PUSH1 0x4 DUP1 CALLDATASIZE SUB DUP2 ADD SWAP1 PUSH2 0x66 SWAP2 SWAP1 PUSH2 0x51D JUMP JUMPDEST PUSH2 0xB3 JUMP JUMPDEST PUSH1 0x40 MLOAD PUSH2 0x7A SWAP4 SWAP3 SWAP2 SWAP1 PUSH2 0x677 JUMP JUMPDEST PUSH1 0x40 MLOAD DUP1 SWAP2 SUB SWAP1 RETURN JUMPDEST PUSH2 0x9D PUSH1 0x4 DUP1 CALLDATASIZE SUB DUP2 ADD SWAP1 PUSH2 0x98 SWAP2 SWAP1 PUSH2 0x546 JUMP JUMPDEST PUSH2 0xDD JUMP JUMPDEST STOP JUMPDEST PUSH2 0xA7 PUSH2 0x201 JUMP JUMPDEST STOP JUMPDEST PUSH2 0xB1 PUSH2 0x404 JUMP JUMPDEST STOP JUMPDEST PUSH1 0x0 PUSH1 0x20 MSTORE DUP1 PUSH1 0x0 MSTORE PUSH1 0x40 PUSH1 0x0 KECCAK256 PUSH1 0x0 SWAP2 POP SWAP1 POP DUP1 PUSH1 0x0 ADD SLOAD SWAP1 DUP1 PUSH1 0x1 ADD SLOAD SWAP1 DUP1 PUSH1 0x2 ADD SLOAD SWAP1 POP DUP4 JUMP JUMPDEST PUSH1 0x0 DUP1 PUSH1 0x0 CALLER PUSH20 0xFFFFFFFFFFFFFFFFFFFFFFFFFFFFFFFFFFFFFFFF AND PUSH20 0xFFFFFFFFFFFFFFFFFFFFFFFFFFFFFFFFFFFFFFFF AND DUP2 MSTORE PUSH1 0x20 ADD SWAP1 DUP2 MSTORE PUSH1 0x20 ADD PUSH1 0x0 KECCAK256 PUSH1 0x0 ADD SLOAD EQ PUSH2 0x161 JUMPI PUSH1 0x40 MLOAD PUSH32 0x8C379A000000000000000000000000000000000000000000000000000000000 DUP2 MSTORE PUSH1 0x4 ADD PUSH2 0x158 SWAP1 PUSH2 0x657 JUMP JUMPDEST PUSH1 0x40 MLOAD DUP1 SWAP2 SUB SWAP1 REVERT JUMPDEST PUSH1 0x40 MLOAD DUP1 PUSH1 0x60 ADD PUSH1 0x40 MSTORE DUP1 DUP4 DUP2 MSTORE PUSH1 0x20 ADD PUSH3 0x15180 DUP4 PUSH2 0x181 SWAP2 SWAP1 PUSH2 0x746 JUMP JUMPDEST TIMESTAMP PUSH2 0x18C SWAP2 SWAP1 PUSH2 0x6BF JUMP JUMPDEST DUP2 MSTORE PUSH1 0x20 ADD PUSH2 0x19B DUP5 DUP5 PUSH2 0x4D1 JUMP JUMPDEST DUP2 MSTORE POP PUSH1 0x0 DUP1 CALLER PUSH20 0xFFFFFFFFFFFFFFFFFFFFFFFFFFFFFFFFFFFFFFFF AND PUSH20 0xFFFFFFFFFFFFFFFFFFFFFFFFFFFFFFFFFFFFFFFF AND DUP2 MSTORE PUSH1 0x20 ADD SWAP1 DUP2 MSTORE PUSH1 0x20 ADD PUSH1 0x0 KECCAK256 PUSH1 0x0 DUP3 ADD MLOAD DUP2 PUSH1 0x0 ADD SSTORE PUSH1 0x20 DUP3 ADD MLOAD DUP2 PUSH1 0x1 ADD SSTORE PUSH1 0x40 DUP3 ADD MLOAD DUP2 PUSH1 0x2 ADD SSTORE SWAP1 POP POP POP POP JUMP JUMPDEST PUSH2 0x209 PUSH2 0x404 JUMP JUMPDEST PUSH2 0x215 PUSH1 0x64 PUSH1 0x0 PUSH2 0xDD JUMP JUMPDEST PUSH1 0x64 PUSH1 0x0 DUP1 CALLER PUSH20 0xFFFFFFFFFFFFFFFFFFFFFFFFFFFFFFFFFFFFFFFF AND PUSH20 0xFFFFFFFFFFFFFFFFFFFFFFFFFFFFFFFFFFFFFFFF AND DUP2 MSTORE PUSH1 0x20 ADD SWAP1 DUP2 MSTORE PUSH1 0x20 ADD PUSH1 0x0 KECCAK256 PUSH1 0x0 ADD SLOAD EQ PUSH2 0x28D JUMPI PUSH32 0x4E487B7100000000000000000000000000000000000000000000000000000000 PUSH1 0x0 MSTORE PUSH1 0x1 PUSH1 0x4 MSTORE PUSH1 0x24 PUSH1 0x0 REVERT JUMPDEST TIMESTAMP PUSH1 0x0 DUP1 CALLER PUSH20 0xFFFFFFFFFFFFFFFFFFFFFFFFFFFFFFFFFFFFFFFF AND PUSH20 0xFFFFFFFFFFFFFFFFFFFFFFFFFFFFFFFFFFFFFFFF AND DUP2 MSTORE PUSH1 0x20 ADD SWAP1 DUP2 MSTORE PUSH1 0x20 ADD PUSH1 0x0 KECCAK256 PUSH1 0x1 ADD SLOAD EQ PUSH2 0x304 JUMPI PUSH32 0x4E487B7100000000000000000000000000000000000000000000000000000000 PUSH1 0x0 MSTORE PUSH1 0x1 PUSH1 0x4 MSTORE PUSH1 0x24 PUSH1 0x0 REVERT JUMPDEST PUSH1 0x0 DUP1 PUSH1 0x0 CALLER PUSH20 0xFFFFFFFFFFFFFFFFFFFFFFFFFFFFFFFFFFFFFFFF AND PUSH20 0xFFFFFFFFFFFFFFFFFFFFFFFFFFFFFFFFFFFFFFFF AND DUP2 MSTORE PUSH1 0x20 ADD SWAP1 DUP2 MSTORE PUSH1 0x20 ADD PUSH1 0x0 KECCAK256 PUSH1 0x2 ADD SLOAD SWAP1 POP PUSH1 0x0 DUP2 EQ PUSH2 0x381 JUMPI PUSH32 0x4E487B7100000000000000000000000000000000000000000000000000000000 PUSH1 0x0 MSTORE PUSH1 0x1 PUSH1 0x4 MSTORE PUSH1 0x24 PUSH1 0x0 REVERT JUMPDEST PUSH2 0x389 PUSH2 0x404 JUMP JUMPDEST PUSH1 0x0 DUP1 PUSH1 0x0 CALLER PUSH20 0xFFFFFFFFFFFFFFFFFFFFFFFFFFFFFFFFFFFFFFFF AND PUSH20 0xFFFFFFFFFFFFFFFFFFFFFFFFFFFFFFFFFFFFFFFF AND DUP2 MSTORE PUSH1 0x20 ADD SWAP1 DUP2 MSTORE PUSH1 0x20 ADD PUSH1 0x0 KECCAK256 PUSH1 0x0 ADD SLOAD EQ PUSH2 0x401 JUMPI PUSH32 0x4E487B7100000000000000000000000000000000000000000000000000000000 PUSH1 0x0 MSTORE PUSH1 0x1 PUSH1 0x4 MSTORE PUSH1 0x24 PUSH1 0x0 REVERT JUMPDEST POP JUMP JUMPDEST TIMESTAMP PUSH1 0x0 DUP1 CALLER PUSH20 0xFFFFFFFFFFFFFFFFFFFFFFFFFFFFFFFFFFFFFFFF AND PUSH20 0xFFFFFFFFFFFFFFFFFFFFFFFFFFFFFFFFFFFFFFFF AND DUP2 MSTORE PUSH1 0x20 ADD SWAP1 DUP2 MSTORE PUSH1 0x20 ADD PUSH1 0x0 KECCAK256 PUSH1 0x1 ADD SLOAD GT ISZERO PUSH2 0x488 JUMPI PUSH1 0x40 MLOAD PUSH32 0x8C379A000000000000000000000000000000000000000000000000000000000 DUP2 MSTORE PUSH1 0x4 ADD PUSH2 0x47F SWAP1 PUSH2 0x637 JUMP JUMPDEST PUSH1 0x40 MLOAD DUP1 SWAP2 SUB SWAP1 REVERT JUMPDEST PUSH1 0x0 DUP1 PUSH1 0x0 CALLER PUSH20 0xFFFFFFFFFFFFFFFFFFFFFFFFFFFFFFFFFFFFFFFF AND PUSH20 0xFFFFFFFFFFFFFFFFFFFFFFFFFFFFFFFFFFFFFFFF AND DUP2 MSTORE PUSH1 0x20 ADD SWAP1 DUP2 MSTORE PUSH1 0x20 ADD PUSH1 0x0 KECCAK256 PUSH1 0x0 ADD DUP2 SWAP1 SSTORE POP JUMP JUMPDEST PUSH1 0x0 PUSH1 0x64 DUP3 DUP5 PUSH2 0x4E1 SWAP2 SWAP1 PUSH2 0x746 JUMP JUMPDEST PUSH2 0x4EB SWAP2 SWAP1 PUSH2 0x715 JUMP JUMPDEST SWAP1 POP SWAP3 SWAP2 POP POP JUMP JUMPDEST PUSH1 0x0 DUP2 CALLDATALOAD SWAP1 POP PUSH2 0x502 DUP2 PUSH2 0x83A JUMP JUMPDEST SWAP3 SWAP2 POP POP JUMP JUMPDEST PUSH1 0x0 DUP2 CALLDATALOAD SWAP1 POP PUSH2 0x517 DUP2 PUSH2 0x851 JUMP JUMPDEST SWAP3 SWAP2 POP POP JUMP JUMPDEST PUSH1 0x0 PUSH1 0x20 DUP3 DUP5 SUB SLT ISZERO PUSH2 0x52F JUMPI PUSH1 0x0 DUP1 REVERT JUMPDEST PUSH1 0x0 PUSH2 0x53D DUP5 DUP3 DUP6 ADD PUSH2 0x4F3 JUMP JUMPDEST SWAP2 POP POP SWAP3 SWAP2 POP POP JUMP JUMPDEST PUSH1 0x0 DUP1 PUSH1 0x40 DUP4 DUP6 SUB SLT ISZERO PUSH2 0x559 JUMPI PUSH1 0x0 DUP1 REVERT JUMPDEST PUSH1 0x0 PUSH2 0x567 DUP6 DUP3 DUP7 ADD PUSH2 0x508 JUMP JUMPDEST SWAP3 POP POP PUSH1 0x20 PUSH2 0x578 DUP6 DUP3 DUP7 ADD PUSH2 0x508 JUMP JUMPDEST SWAP2 POP POP SWAP3 POP SWAP3 SWAP1 POP JUMP JUMPDEST PUSH1 0x0 PUSH2 0x58F PUSH1 0x23 DUP4 PUSH2 0x6AE JUMP JUMPDEST SWAP2 POP PUSH32 0x48656E757A206B696C6964696E206163696C6D61207A616D616E692067656C6D PUSH1 0x0 DUP4 ADD MSTORE PUSH32 0x6564690000000000000000000000000000000000000000000000000000000000 PUSH1 0x20 DUP4 ADD MSTORE PUSH1 0x40 DUP3 ADD SWAP1 POP SWAP2 SWAP1 POP JUMP JUMPDEST PUSH1 0x0 PUSH2 0x5F5 PUSH1 0x1E DUP4 PUSH2 0x6AE JUMP JUMPDEST SWAP2 POP PUSH32 0x5A6174656E206B696C69746C6920746F6B656E6C6572696E697A207661720000 PUSH1 0x0 DUP4 ADD MSTORE PUSH1 0x20 DUP3 ADD SWAP1 POP SWAP2 SWAP1 POP JUMP JUMPDEST PUSH2 0x631 DUP2 PUSH2 0x7D2 JUMP JUMPDEST DUP3 MSTORE POP POP JUMP JUMPDEST PUSH1 0x0 PUSH1 0x20 DUP3 ADD SWAP1 POP DUP2 DUP2 SUB PUSH1 0x0 DUP4 ADD MSTORE PUSH2 0x650 DUP2 PUSH2 0x582 JUMP JUMPDEST SWAP1 POP SWAP2 SWAP1 POP JUMP JUMPDEST PUSH1 0x0 PUSH1 0x20 DUP3 ADD SWAP1 POP DUP2 DUP2 SUB PUSH1 0x0 DUP4 ADD MSTORE PUSH2 0x670 DUP2 PUSH2 0x5E8 JUMP JUMPDEST SWAP1 POP SWAP2 SWAP1 POP JUMP JUMPDEST PUSH1 0x0 PUSH1 0x60 DUP3 ADD SWAP1 POP PUSH2 0x68C PUSH1 0x0 DUP4 ADD DUP7 PUSH2 0x628 JUMP JUMPDEST PUSH2 0x699 PUSH1 0x20 DUP4 ADD DUP6 PUSH2 0x628 JUMP JUMPDEST PUSH2 0x6A6 PUSH1 0x40 DUP4 ADD DUP5 PUSH2 0x628 JUMP JUMPDEST SWAP5 SWAP4 POP POP POP POP JUMP JUMPDEST PUSH1 0x0 DUP3 DUP3 MSTORE PUSH1 0x20 DUP3 ADD SWAP1 POP SWAP3 SWAP2 POP POP JUMP JUMPDEST PUSH1 0x0 PUSH2 0x6CA DUP3 PUSH2 0x7D2 JUMP JUMPDEST SWAP2 POP PUSH2 0x6D5 DUP4 PUSH2 0x7D2 JUMP JUMPDEST SWAP3 POP DUP3 PUSH32 0xFFFFFFFFFFFFFFFFFFFFFFFFFFFFFFFFFFFFFFFFFFFFFFFFFFFFFFFFFFFFFFFF SUB DUP3 GT ISZERO PUSH2 0x70A JUMPI PUSH2 0x709 PUSH2 0x7DC JUMP JUMPDEST JUMPDEST DUP3 DUP3 ADD SWAP1 POP SWAP3 SWAP2 POP POP JUMP JUMPDEST PUSH1 0x0 PUSH2 0x720 DUP3 PUSH2 0x7D2 JUMP JUMPDEST SWAP2 POP PUSH2 0x72B DUP4 PUSH2 0x7D2 JUMP JUMPDEST SWAP3 POP DUP3 PUSH2 0x73B JUMPI PUSH2 0x73A PUSH2 0x80B JUMP JUMPDEST JUMPDEST DUP3 DUP3 DIV SWAP1 POP SWAP3 SWAP2 POP POP JUMP JUMPDEST PUSH1 0x0 PUSH2 0x751 DUP3 PUSH2 0x7D2 JUMP JUMPDEST SWAP2 POP PUSH2 0x75C DUP4 PUSH2 0x7D2 JUMP JUMPDEST SWAP3 POP DUP2 PUSH32 0xFFFFFFFFFFFFFFFFFFFFFFFFFFFFFFFFFFFFFFFFFFFFFFFFFFFFFFFFFFFFFFFF DIV DUP4 GT DUP3 ISZERO ISZERO AND ISZERO PUSH2 0x795 JUMPI PUSH2 0x794 PUSH2 0x7DC JUMP JUMPDEST JUMPDEST DUP3 DUP3 MUL SWAP1 POP SWAP3 SWAP2 POP POP JUMP JUMPDEST PUSH1 0x0 PUSH2 0x7AB DUP3 PUSH2 0x7B2 JUMP JUMPDEST SWAP1 POP SWAP2 SWAP1 POP JUMP JUMPDEST PUSH1 0x0 PUSH20 0xFFFFFFFFFFFFFFFFFFFFFFFFFFFFFFFFFFFFFFFF DUP3 AND SWAP1 POP SWAP2 SWAP1 POP JUMP JUMPDEST PUSH1 0x0 DUP2 SWAP1 POP SWAP2 SWAP1 POP JUMP JUMPDEST PUSH32 0x4E487B7100000000000000000000000000000000000000000000000000000000 PUSH1 0x0 MSTORE PUSH1 0x11 PUSH1 0x4 MSTORE PUSH1 0x24 PUSH1 0x0 REVERT JUMPDEST PUSH32 0x4E487B7100000000000000000000000000000000000000000000000000000000 PUSH1 0x0 MSTORE PUSH1 0x12 PUSH1 0x4 MSTORE PUSH1 0x24 PUSH1 0x0 REVERT JUMPDEST PUSH2 0x843 DUP2 PUSH2 0x7A0 JUMP JUMPDEST DUP2 EQ PUSH2 0x84E JUMPI PUSH1 0x0 DUP1 REVERT JUMPDEST POP JUMP JUMPDEST PUSH2 0x85A DUP2 PUSH2 0x7D2 JUMP JUMPDEST DUP2 EQ PUSH2 0x865 JUMPI PUSH1 0x0 DUP1 REVERT JUMPDEST POP JUMP INVALID LOG2 PUSH5 0x6970667358 0x22 SLT KECCAK256 DUP8 INVALID SAR 0xF7 0xC7 RETURNDATACOPY PUSH32 0x47202938578C0A80B0018EB1651E618FE0695DBF9C817185D764736F6C634300 ADDMOD STOP STOP CALLER "
				},
				"gasEstimates": {
					"creation": {
						"codeDepositCost": "441200",
						"executionCost": "474",
						"totalCost": "441674"
					},
					"external": {
						"lockTokens(uint256,uint256)": "infinite",
						"lockers(address)": "infinite",
						"test()": "infinite",
						"unlockTokens()": "6217"
					},
					"internal": {
						"calculateReward(uint256,uint256)": "infinite"
					}
				},
				"methodIdentifiers": {
					"lockTokens(uint256,uint256)": "89158d8e",
					"lockers(address)": "2c8e7a21",
					"test()": "f8a8fd6d",
					"unlockTokens()": "f968f493"
				}
			},
			"storageLayout": {
				"storage": [
					{
						"astId": 13,
						"contract": "contracts/SafeSmartContract.sol:SafeSmartContract",
						"label": "lockers",
						"offset": 0,
						"slot": "0",
						"type": "t_mapping(t_address,t_struct(Locker)8_storage)"
					}
				],
				"types": {
					"t_address": {
						"encoding": "inplace",
						"label": "address",
						"numberOfBytes": "20"
					},
					"t_mapping(t_address,t_struct(Locker)8_storage)": {
						"encoding": "mapping",
						"key": "t_address",
						"label": "mapping(address => struct SafeSmartContract.Locker)",
						"numberOfBytes": "32",
						"value": "t_struct(Locker)8_storage"
					},
					"t_struct(Locker)8_storage": {
						"encoding": "inplace",
						"label": "struct SafeSmartContract.Locker",
						"members": [
							{
								"astId": 3,
								"contract": "contracts/SafeSmartContract.sol:SafeSmartContract",
								"label": "amount",
								"offset": 0,
								"slot": "0",
								"type": "t_uint256"
							},
							{
								"astId": 5,
								"contract": "contracts/SafeSmartContract.sol:SafeSmartContract",
								"label": "unlockTime",
								"offset": 0,
								"slot": "1",
								"type": "t_uint256"
							},
							{
								"astId": 7,
								"contract": "contracts/SafeSmartContract.sol:SafeSmartContract",
								"label": "reward",
								"offset": 0,
								"slot": "2",
								"type": "t_uint256"
							}
						],
						"numberOfBytes": "96"
					},
					"t_uint256": {
						"encoding": "inplace",
						"label": "uint256",
						"numberOfBytes": "32"
					}
				}
			},
			"userdoc": {
				"kind": "user",
				"methods": {},
				"version": 1
			}
		}
	}
}